{"abi":[{"type":"constructor","inputs":[{"name":"name","type":"string","internalType":"string"},{"name":"symbol","type":"string","internalType":"string"},{"name":"initialOwner","type":"address","internalType":"address"}],"stateMutability":"nonpayable"},{"type":"function","name":"_nextTokenId","inputs":[],"outputs":[{"name":"","type":"uint256","internalType":"uint256"}],"stateMutability":"view"},{"type":"function","name":"approve","inputs":[{"name":"to","type":"address","internalType":"address"},{"name":"tokenId","type":"uint256","internalType":"uint256"}],"outputs":[],"stateMutability":"nonpayable"},{"type":"function","name":"balanceOf","inputs":[{"name":"owner","type":"address","internalType":"address"}],"outputs":[{"name":"","type":"uint256","internalType":"uint256"}],"stateMutability":"view"},{"type":"function","name":"getApproved","inputs":[{"name":"tokenId","type":"uint256","internalType":"uint256"}],"outputs":[{"name":"","type":"address","internalType":"address"}],"stateMutability":"view"},{"type":"function","name":"isApprovedForAll","inputs":[{"name":"owner","type":"address","internalType":"address"},{"name":"operator","type":"address","internalType":"address"}],"outputs":[{"name":"","type":"bool","internalType":"bool"}],"stateMutability":"view"},{"type":"function","name":"mintNFT","inputs":[{"name":"recipient","type":"address","internalType":"address"},{"name":"tURI","type":"string","internalType":"string"}],"outputs":[{"name":"","type":"uint256","internalType":"uint256"}],"stateMutability":"nonpayable"},{"type":"function","name":"name","inputs":[],"outputs":[{"name":"","type":"string","internalType":"string"}],"stateMutability":"view"},{"type":"function","name":"owner","inputs":[],"outputs":[{"name":"","type":"address","internalType":"address"}],"stateMutability":"view"},{"type":"function","name":"ownerOf","inputs":[{"name":"tokenId","type":"uint256","internalType":"uint256"}],"outputs":[{"name":"","type":"address","internalType":"address"}],"stateMutability":"view"},{"type":"function","name":"renounceOwnership","inputs":[],"outputs":[],"stateMutability":"nonpayable"},{"type":"function","name":"safeTransferFrom","inputs":[{"name":"from","type":"address","internalType":"address"},{"name":"to","type":"address","internalType":"address"},{"name":"tokenId","type":"uint256","internalType":"uint256"}],"outputs":[],"stateMutability":"nonpayable"},{"type":"function","name":"safeTransferFrom","inputs":[{"name":"from","type":"address","internalType":"address"},{"name":"to","type":"address","internalType":"address"},{"name":"tokenId","type":"uint256","internalType":"uint256"},{"name":"data","type":"bytes","internalType":"bytes"}],"outputs":[],"stateMutability":"nonpayable"},{"type":"function","name":"setApprovalForAll","inputs":[{"name":"operator","type":"address","internalType":"address"},{"name":"approved","type":"bool","internalType":"bool"}],"outputs":[],"stateMutability":"nonpayable"},{"type":"function","name":"supportsInterface","inputs":[{"name":"interfaceId","type":"bytes4","internalType":"bytes4"}],"outputs":[{"name":"","type":"bool","internalType":"bool"}],"stateMutability":"view"},{"type":"function","name":"symbol","inputs":[],"outputs":[{"name":"","type":"string","internalType":"string"}],"stateMutability":"view"},{"type":"function","name":"tokenByIndex","inputs":[{"name":"index","type":"uint256","internalType":"uint256"}],"outputs":[{"name":"","type":"uint256","internalType":"uint256"}],"stateMutability":"view"},{"type":"function","name":"tokenOfOwnerByIndex","inputs":[{"name":"owner","type":"address","internalType":"address"},{"name":"index","type":"uint256","internalType":"uint256"}],"outputs":[{"name":"","type":"uint256","internalType":"uint256"}],"stateMutability":"view"},{"type":"function","name":"tokenURI","inputs":[{"name":"tokenId","type":"uint256","internalType":"uint256"}],"outputs":[{"name":"","type":"string","internalType":"string"}],"stateMutability":"view"},{"type":"function","name":"totalSupply","inputs":[],"outputs":[{"name":"","type":"uint256","internalType":"uint256"}],"stateMutability":"view"},{"type":"function","name":"transferFrom","inputs":[{"name":"from","type":"address","internalType":"address"},{"name":"to","type":"address","internalType":"address"},{"name":"tokenId","type":"uint256","internalType":"uint256"}],"outputs":[],"stateMutability":"nonpayable"},{"type":"function","name":"transferOwnership","inputs":[{"name":"newOwner","type":"address","internalType":"address"}],"outputs":[],"stateMutability":"nonpayable"},{"type":"event","name":"Approval","inputs":[{"name":"owner","type":"address","indexed":true,"internalType":"address"},{"name":"approved","type":"address","indexed":true,"internalType":"address"},{"name":"tokenId","type":"uint256","indexed":true,"internalType":"uint256"}],"anonymous":false},{"type":"event","name":"ApprovalForAll","inputs":[{"name":"owner","type":"address","indexed":true,"internalType":"address"},{"name":"operator","type":"address","indexed":true,"internalType":"address"},{"name":"approved","type":"bool","indexed":false,"internalType":"bool"}],"anonymous":false},{"type":"event","name":"BatchMetadataUpdate","inputs":[{"name":"_fromTokenId","type":"uint256","indexed":false,"internalType":"uint256"},{"name":"_toTokenId","type":"uint256","indexed":false,"internalType":"uint256"}],"anonymous":false},{"type":"event","name":"MetadataUpdate","inputs":[{"name":"_tokenId","type":"uint256","indexed":false,"internalType":"uint256"}],"anonymous":false},{"type":"event","name":"OwnershipTransferred","inputs":[{"name":"previousOwner","type":"address","indexed":true,"internalType":"address"},{"name":"newOwner","type":"address","indexed":true,"internalType":"address"}],"anonymous":false},{"type":"event","name":"Transfer","inputs":[{"name":"from","type":"address","indexed":true,"internalType":"address"},{"name":"to","type":"address","indexed":true,"internalType":"address"},{"name":"tokenId","type":"uint256","indexed":true,"internalType":"uint256"}],"anonymous":false},{"type":"error","name":"ERC721EnumerableForbiddenBatchMint","inputs":[]},{"type":"error","name":"ERC721IncorrectOwner","inputs":[{"name":"sender","type":"address","internalType":"address"},{"name":"tokenId","type":"uint256","internalType":"uint256"},{"name":"owner","type":"address","internalType":"address"}]},{"type":"error","name":"ERC721InsufficientApproval","inputs":[{"name":"operator","type":"address","internalType":"address"},{"name":"tokenId","type":"uint256","internalType":"uint256"}]},{"type":"error","name":"ERC721InvalidApprover","inputs":[{"name":"approver","type":"address","internalType":"address"}]},{"type":"error","name":"ERC721InvalidOperator","inputs":[{"name":"operator","type":"address","internalType":"address"}]},{"type":"error","name":"ERC721InvalidOwner","inputs":[{"name":"owner","type":"address","internalType":"address"}]},{"type":"error","name":"ERC721InvalidReceiver","inputs":[{"name":"receiver","type":"address","internalType":"address"}]},{"type":"error","name":"ERC721InvalidSender","inputs":[{"name":"sender","type":"address","internalType":"address"}]},{"type":"error","name":"ERC721NonexistentToken","inputs":[{"name":"tokenId","type":"uint256","internalType":"uint256"}]},{"type":"error","name":"ERC721OutOfBoundsIndex","inputs":[{"name":"owner","type":"address","internalType":"address"},{"name":"index","type":"uint256","internalType":"uint256"}]},{"type":"error","name":"OwnableInvalidOwner","inputs":[{"name":"owner","type":"address","internalType":"address"}]},{"type":"error","name":"OwnableUnauthorizedAccount","inputs":[{"name":"account","type":"address","internalType":"address"}]}],"bytecode":{"object":"0x608060405234801561000f575f5ffd5b5060405161188838038061188883398101604081905261002e91610179565b8083835f61003c8382610282565b5060016100498282610282565b5050506001600160a01b03811661007957604051631e4fbdf760e01b81525f600482015260240160405180910390fd5b6100828161008b565b5050505061033c565b600b80546001600160a01b038381166001600160a01b0319831681179093556040519116919082907f8be0079c531659141344cd1fd0a4f28419497f9722a3daafe3b4186f6b6457e0905f90a35050565b634e487b7160e01b5f52604160045260245ffd5b5f82601f8301126100ff575f5ffd5b81516001600160401b03811115610118576101186100dc565b604051601f8201601f19908116603f011681016001600160401b0381118282101715610146576101466100dc565b60405281815283820160200185101561015d575f5ffd5b8160208501602083015e5f918101602001919091529392505050565b5f5f5f6060848603121561018b575f5ffd5b83516001600160401b038111156101a0575f5ffd5b6101ac868287016100f0565b602086015190945090506001600160401b038111156101c9575f5ffd5b6101d5868287016100f0565b604086015190935090506001600160a01b03811681146101f3575f5ffd5b809150509250925092565b600181811c9082168061021257607f821691505b60208210810361023057634e487b7160e01b5f52602260045260245ffd5b50919050565b601f82111561027d57805f5260205f20601f840160051c8101602085101561025b5750805b601f840160051c820191505b8181101561027a575f8155600101610267565b50505b505050565b81516001600160401b0381111561029b5761029b6100dc565b6102af816102a984546101fe565b84610236565b6020601f8211600181146102e1575f83156102ca5750848201515b5f19600385901b1c1916600184901b17845561027a565b5f84815260208120601f198516915b8281101561031057878501518255602094850194600190920191016102f0565b508482101561032d57868401515f19600387901b60f8161c191681555b50505050600190811b01905550565b61153f806103495f395ff3fe608060405234801561000f575f5ffd5b5060043610610132575f3560e01c80636352211e116100b4578063a22cb46511610079578063a22cb46514610261578063b88d4fde14610274578063c87b56dd14610287578063e985e9c51461029a578063eacabe14146102ad578063f2fde38b146102c0575f5ffd5b80636352211e1461021a57806370a082311461022d578063715018a6146102405780638da5cb5b1461024857806395d89b4114610259575f5ffd5b806323b872dd116100fa57806323b872dd146101c55780632f745c59146101d857806342842e0e146101eb5780634a60f620146101fe5780634f6ccce714610207575f5ffd5b806301ffc9a71461013657806306fdde031461015e578063081812fc14610173578063095ea7b31461019e57806318160ddd146101b3575b5f5ffd5b610149610144366004611046565b6102d3565b60405190151581526020015b60405180910390f35b6101666102e3565b604051610155919061108f565b6101866101813660046110a1565b610372565b6040516001600160a01b039091168152602001610155565b6101b16101ac3660046110d3565b610399565b005b6008545b604051908152602001610155565b6101b16101d33660046110fb565b6103a8565b6101b76101e63660046110d3565b610436565b6101b16101f93660046110fb565b610499565b6101b7600c5481565b6101b76102153660046110a1565b6104b8565b6101866102283660046110a1565b61050d565b6101b761023b366004611135565b610517565b6101b161055c565b600b546001600160a01b0316610186565b61016661056f565b6101b161026f36600461114e565b61057e565b6101b1610282366004611212565b610589565b6101666102953660046110a1565b6105a1565b6101496102a8366004611289565b6105ac565b6101b76102bb3660046112ba565b6105d9565b6101b16102ce366004611135565b61063e565b5f6102dd8261067b565b92915050565b60605f80546102f190611318565b80601f016020809104026020016040519081016040528092919081815260200182805461031d90611318565b80156103685780601f1061033f57610100808354040283529160200191610368565b820191905f5260205f20905b81548152906001019060200180831161034b57829003601f168201915b5050505050905090565b5f61037c8261069f565b505f828152600460205260409020546001600160a01b03166102dd565b6103a48282336106d7565b5050565b6001600160a01b0382166103d657604051633250574960e11b81525f60048201526024015b60405180910390fd5b5f6103e28383336106e4565b9050836001600160a01b0316816001600160a01b031614610430576040516364283d7b60e01b81526001600160a01b03808616600483015260248201849052821660448201526064016103cd565b50505050565b5f61044083610517565b82106104715760405163295f44f760e21b81526001600160a01b0384166004820152602481018390526044016103cd565b506001600160a01b03919091165f908152600660209081526040808320938352929052205490565b6104b383838360405180602001604052805f815250610589565b505050565b5f6104c260085490565b82106104ea5760405163295f44f760e21b81525f6004820152602481018390526044016103cd565b600882815481106104fd576104fd611350565b905f5260205f2001549050919050565b5f6102dd8261069f565b5f6001600160a01b038216610541576040516322718ad960e21b81525f60048201526024016103cd565b506001600160a01b03165f9081526003602052604090205490565b6105646106f8565b61056d5f610725565b565b6060600180546102f190611318565b6103a4338383610776565b6105948484846103a8565b6104303385858585610814565b60606102dd8261093c565b6001600160a01b039182165f90815260056020908152604080832093909416825291909152205460ff1690565b5f6105e26106f8565b600c80549081905f6105f383611364565b91905055506106028482610a5d565b61060c8184610abe565b6001600160a01b0384165f908152600d6020908152604082208054600181018255908352912001819055905092915050565b6106466106f8565b6001600160a01b03811661066f57604051631e4fbdf760e01b81525f60048201526024016103cd565b61067881610725565b50565b5f6001600160e01b03198216632483248360e11b14806102dd57506102dd82610b0d565b5f818152600260205260408120546001600160a01b0316806102dd57604051637e27328960e01b8152600481018490526024016103cd565b6104b38383836001610b31565b5f6106f0848484610c35565b949350505050565b600b546001600160a01b0316331461056d5760405163118cdaa760e01b81523360048201526024016103cd565b600b80546001600160a01b038381166001600160a01b0319831681179093556040519116919082907f8be0079c531659141344cd1fd0a4f28419497f9722a3daafe3b4186f6b6457e0905f90a35050565b6001600160a01b0382166107a857604051630b61174360e31b81526001600160a01b03831660048201526024016103cd565b6001600160a01b038381165f81815260056020908152604080832094871680845294825291829020805460ff191686151590811790915591519182527f17307eab39ab6107e8899845ad3d59bd9653f200f220920489ca2b5937696c31910160405180910390a3505050565b6001600160a01b0383163b1561093557604051630a85bd0160e11b81526001600160a01b0384169063150b7a0290610856908890889087908790600401611388565b6020604051808303815f875af1925050508015610890575060408051601f3d908101601f1916820190925261088d918101906113c4565b60015b6108f7573d8080156108bd576040519150601f19603f3d011682016040523d82523d5f602084013e6108c2565b606091505b5080515f036108ef57604051633250574960e11b81526001600160a01b03851660048201526024016103cd565b805181602001fd5b6001600160e01b03198116630a85bd0160e11b1461093357604051633250574960e11b81526001600160a01b03851660048201526024016103cd565b505b5050505050565b60606109478261069f565b505f828152600a60205260408120805461096090611318565b80601f016020809104026020016040519081016040528092919081815260200182805461098c90611318565b80156109d75780601f106109ae576101008083540402835291602001916109d7565b820191905f5260205f20905b8154815290600101906020018083116109ba57829003601f168201915b505050505090505f610a1160408051808201909152601581527468747470733a2f2f697066732e696f2f697066732f60581b602082015290565b905080515f03610a22575092915050565b815115610a54578082604051602001610a3c9291906113f6565b60405160208183030381529060405292505050919050565b6106f084610d27565b6001600160a01b038216610a8657604051633250574960e11b81525f60048201526024016103cd565b5f610a9283835f6106e4565b90506001600160a01b038116156104b3576040516339e3563760e11b81525f60048201526024016103cd565b5f828152600a60205260409020610ad5828261144e565b506040518281527ff8e1a15aba9398e019f0b49df1a4fde98ee17ae345cb5f6b5e2c27f5033e8ce79060200160405180910390a15050565b5f6001600160e01b0319821663780e9d6360e01b14806102dd57506102dd82610db6565b8080610b4557506001600160a01b03821615155b15610c06575f610b548461069f565b90506001600160a01b03831615801590610b805750826001600160a01b0316816001600160a01b031614155b8015610b935750610b9181846105ac565b155b15610bbc5760405163a9fbf51f60e01b81526001600160a01b03841660048201526024016103cd565b8115610c045783856001600160a01b0316826001600160a01b03167f8c5be1e5ebec7d5bd14f71427d1e84f3dd0314c0f7b2291e5b200ac8c7c3b92560405160405180910390a45b505b50505f90815260046020526040902080546001600160a01b0319166001600160a01b0392909216919091179055565b5f828152600260205260408120546001600160a01b0390811690831615610c6157610c61818486610e05565b6001600160a01b03811615610c9b57610c7c5f855f5f610b31565b6001600160a01b0381165f90815260036020526040902080545f190190555b6001600160a01b03851615610cc9576001600160a01b0385165f908152600360205260409020805460010190555b5f8481526002602052604080822080546001600160a01b0319166001600160a01b0389811691821790925591518793918516917fddf252ad1be2c89b69c2b068fc378daa952ba7f163c4a11628f55a4df523b3ef91a4949350505050565b6060610d328261069f565b505f610d6660408051808201909152601581527468747470733a2f2f697066732e696f2f697066732f60581b602082015290565b90505f815111610d845760405180602001604052805f815250610daf565b80610d8e84610e69565b604051602001610d9f9291906113f6565b6040516020818303038152906040525b9392505050565b5f6001600160e01b031982166380ac58cd60e01b1480610de657506001600160e01b03198216635b5e139f60e01b145b806102dd57506301ffc9a760e01b6001600160e01b03198316146102dd565b610e10838383610ef9565b6104b3576001600160a01b038316610e3e57604051637e27328960e01b8152600481018290526024016103cd565b60405163177e802f60e01b81526001600160a01b0383166004820152602481018290526044016103cd565b60605f610e7583610f5a565b60010190505f8167ffffffffffffffff811115610e9457610e94611187565b6040519080825280601f01601f191660200182016040528015610ebe576020820181803683370190505b5090508181016020015b5f19016f181899199a1a9b1b9c1cb0b131b232b360811b600a86061a8153600a8504945084610ec857509392505050565b5f6001600160a01b038316158015906106f05750826001600160a01b0316846001600160a01b03161480610f325750610f3284846105ac565b806106f05750505f908152600460205260409020546001600160a01b03908116911614919050565b5f8072184f03e93ff9f4daa797ed6e38ed64bf6a1f0160401b8310610f985772184f03e93ff9f4daa797ed6e38ed64bf6a1f0160401b830492506040015b6d04ee2d6d415b85acef81000000008310610fc4576d04ee2d6d415b85acef8100000000830492506020015b662386f26fc100008310610fe257662386f26fc10000830492506010015b6305f5e1008310610ffa576305f5e100830492506008015b612710831061100e57612710830492506004015b60648310611020576064830492506002015b600a83106102dd5760010192915050565b6001600160e01b031981168114610678575f5ffd5b5f60208284031215611056575f5ffd5b8135610daf81611031565b5f81518084528060208401602086015e5f602082860101526020601f19601f83011685010191505092915050565b602081525f610daf6020830184611061565b5f602082840312156110b1575f5ffd5b5035919050565b80356001600160a01b03811681146110ce575f5ffd5b919050565b5f5f604083850312156110e4575f5ffd5b6110ed836110b8565b946020939093013593505050565b5f5f5f6060848603121561110d575f5ffd5b611116846110b8565b9250611124602085016110b8565b929592945050506040919091013590565b5f60208284031215611145575f5ffd5b610daf826110b8565b5f5f6040838503121561115f575f5ffd5b611168836110b8565b91506020830135801515811461117c575f5ffd5b809150509250929050565b634e487b7160e01b5f52604160045260245ffd5b5f5f67ffffffffffffffff8411156111b5576111b5611187565b50604051601f19601f85018116603f0116810181811067ffffffffffffffff821117156111e4576111e4611187565b6040528381529050808284018510156111fb575f5ffd5b838360208301375f60208583010152509392505050565b5f5f5f5f60808587031215611225575f5ffd5b61122e856110b8565b935061123c602086016110b8565b925060408501359150606085013567ffffffffffffffff81111561125e575f5ffd5b8501601f8101871361126e575f5ffd5b61127d8782356020840161119b565b91505092959194509250565b5f5f6040838503121561129a575f5ffd5b6112a3836110b8565b91506112b1602084016110b8565b90509250929050565b5f5f604083850312156112cb575f5ffd5b6112d4836110b8565b9150602083013567ffffffffffffffff8111156112ef575f5ffd5b8301601f810185136112ff575f5ffd5b61130e8582356020840161119b565b9150509250929050565b600181811c9082168061132c57607f821691505b60208210810361134a57634e487b7160e01b5f52602260045260245ffd5b50919050565b634e487b7160e01b5f52603260045260245ffd5b5f6001820161138157634e487b7160e01b5f52601160045260245ffd5b5060010190565b6001600160a01b03858116825284166020820152604081018390526080606082018190525f906113ba90830184611061565b9695505050505050565b5f602082840312156113d4575f5ffd5b8151610daf81611031565b5f81518060208401855e5f93019283525090919050565b5f6106f061140483866113df565b846113df565b601f8211156104b357805f5260205f20601f840160051c8101602085101561142f5750805b601f840160051c820191505b81811015610935575f815560010161143b565b815167ffffffffffffffff81111561146857611468611187565b61147c816114768454611318565b8461140a565b6020601f8211600181146114ae575f83156114975750848201515b5f19600385901b1c1916600184901b178455610935565b5f84815260208120601f198516915b828110156114dd57878501518255602094850194600190920191016114bd565b50848210156114fa57868401515f19600387901b60f8161c191681555b50505050600190811b0190555056fea264697066735822122047a945e8add6615740b5bb21f3227cd58342b8cc03595917ee96e634044394c964736f6c634300081c0033","linkReferences":{}},"methodIdentifiers":{"_nextTokenId()":"4a60f620","approve(address,uint256)":"095ea7b3","balanceOf(address)":"70a08231","getApproved(uint256)":"081812fc","isApprovedForAll(address,address)":"e985e9c5","mintNFT(address,string)":"eacabe14","name()":"06fdde03","owner()":"8da5cb5b","ownerOf(uint256)":"6352211e","renounceOwnership()":"715018a6","safeTransferFrom(address,address,uint256)":"42842e0e","safeTransferFrom(address,address,uint256,bytes)":"b88d4fde","setApprovalForAll(address,bool)":"a22cb465","supportsInterface(bytes4)":"01ffc9a7","symbol()":"95d89b41","tokenByIndex(uint256)":"4f6ccce7","tokenOfOwnerByIndex(address,uint256)":"2f745c59","tokenURI(uint256)":"c87b56dd","totalSupply()":"18160ddd","transferFrom(address,address,uint256)":"23b872dd","transferOwnership(address)":"f2fde38b"},"id":1}