{"abi":[{"type":"constructor","inputs":[{"name":"name","type":"string","internalType":"string"},{"name":"symbol","type":"string","internalType":"string"},{"name":"initialOwner","type":"address","internalType":"address"}],"stateMutability":"nonpayable"},{"type":"function","name":"_nextTokenId","inputs":[],"outputs":[{"name":"","type":"uint256","internalType":"uint256"}],"stateMutability":"view"},{"type":"function","name":"approve","inputs":[{"name":"to","type":"address","internalType":"address"},{"name":"tokenId","type":"uint256","internalType":"uint256"}],"outputs":[],"stateMutability":"nonpayable"},{"type":"function","name":"balanceOf","inputs":[{"name":"owner","type":"address","internalType":"address"}],"outputs":[{"name":"","type":"uint256","internalType":"uint256"}],"stateMutability":"view"},{"type":"function","name":"getApproved","inputs":[{"name":"tokenId","type":"uint256","internalType":"uint256"}],"outputs":[{"name":"","type":"address","internalType":"address"}],"stateMutability":"view"},{"type":"function","name":"isApprovedForAll","inputs":[{"name":"owner","type":"address","internalType":"address"},{"name":"operator","type":"address","internalType":"address"}],"outputs":[{"name":"","type":"bool","internalType":"bool"}],"stateMutability":"view"},{"type":"function","name":"mintNFT","inputs":[{"name":"recipient","type":"address","internalType":"address"},{"name":"tURI","type":"string","internalType":"string"}],"outputs":[{"name":"","type":"uint256","internalType":"uint256"}],"stateMutability":"nonpayable"},{"type":"function","name":"name","inputs":[],"outputs":[{"name":"","type":"string","internalType":"string"}],"stateMutability":"view"},{"type":"function","name":"owner","inputs":[],"outputs":[{"name":"","type":"address","internalType":"address"}],"stateMutability":"view"},{"type":"function","name":"ownerOf","inputs":[{"name":"tokenId","type":"uint256","internalType":"uint256"}],"outputs":[{"name":"","type":"address","internalType":"address"}],"stateMutability":"view"},{"type":"function","name":"renounceOwnership","inputs":[],"outputs":[],"stateMutability":"nonpayable"},{"type":"function","name":"safeTransferFrom","inputs":[{"name":"from","type":"address","internalType":"address"},{"name":"to","type":"address","internalType":"address"},{"name":"tokenId","type":"uint256","internalType":"uint256"}],"outputs":[],"stateMutability":"nonpayable"},{"type":"function","name":"safeTransferFrom","inputs":[{"name":"from","type":"address","internalType":"address"},{"name":"to","type":"address","internalType":"address"},{"name":"tokenId","type":"uint256","internalType":"uint256"},{"name":"data","type":"bytes","internalType":"bytes"}],"outputs":[],"stateMutability":"nonpayable"},{"type":"function","name":"setApprovalForAll","inputs":[{"name":"operator","type":"address","internalType":"address"},{"name":"approved","type":"bool","internalType":"bool"}],"outputs":[],"stateMutability":"nonpayable"},{"type":"function","name":"supportsInterface","inputs":[{"name":"interfaceId","type":"bytes4","internalType":"bytes4"}],"outputs":[{"name":"","type":"bool","internalType":"bool"}],"stateMutability":"view"},{"type":"function","name":"symbol","inputs":[],"outputs":[{"name":"","type":"string","internalType":"string"}],"stateMutability":"view"},{"type":"function","name":"tokenURI","inputs":[{"name":"tokenId","type":"uint256","internalType":"uint256"}],"outputs":[{"name":"","type":"string","internalType":"string"}],"stateMutability":"view"},{"type":"function","name":"transferFrom","inputs":[{"name":"from","type":"address","internalType":"address"},{"name":"to","type":"address","internalType":"address"},{"name":"tokenId","type":"uint256","internalType":"uint256"}],"outputs":[],"stateMutability":"nonpayable"},{"type":"function","name":"transferOwnership","inputs":[{"name":"newOwner","type":"address","internalType":"address"}],"outputs":[],"stateMutability":"nonpayable"},{"type":"event","name":"Approval","inputs":[{"name":"owner","type":"address","indexed":true,"internalType":"address"},{"name":"approved","type":"address","indexed":true,"internalType":"address"},{"name":"tokenId","type":"uint256","indexed":true,"internalType":"uint256"}],"anonymous":false},{"type":"event","name":"ApprovalForAll","inputs":[{"name":"owner","type":"address","indexed":true,"internalType":"address"},{"name":"operator","type":"address","indexed":true,"internalType":"address"},{"name":"approved","type":"bool","indexed":false,"internalType":"bool"}],"anonymous":false},{"type":"event","name":"BatchMetadataUpdate","inputs":[{"name":"_fromTokenId","type":"uint256","indexed":false,"internalType":"uint256"},{"name":"_toTokenId","type":"uint256","indexed":false,"internalType":"uint256"}],"anonymous":false},{"type":"event","name":"MetadataUpdate","inputs":[{"name":"_tokenId","type":"uint256","indexed":false,"internalType":"uint256"}],"anonymous":false},{"type":"event","name":"OwnershipTransferred","inputs":[{"name":"previousOwner","type":"address","indexed":true,"internalType":"address"},{"name":"newOwner","type":"address","indexed":true,"internalType":"address"}],"anonymous":false},{"type":"event","name":"Transfer","inputs":[{"name":"from","type":"address","indexed":true,"internalType":"address"},{"name":"to","type":"address","indexed":true,"internalType":"address"},{"name":"tokenId","type":"uint256","indexed":true,"internalType":"uint256"}],"anonymous":false},{"type":"error","name":"ERC721IncorrectOwner","inputs":[{"name":"sender","type":"address","internalType":"address"},{"name":"tokenId","type":"uint256","internalType":"uint256"},{"name":"owner","type":"address","internalType":"address"}]},{"type":"error","name":"ERC721InsufficientApproval","inputs":[{"name":"operator","type":"address","internalType":"address"},{"name":"tokenId","type":"uint256","internalType":"uint256"}]},{"type":"error","name":"ERC721InvalidApprover","inputs":[{"name":"approver","type":"address","internalType":"address"}]},{"type":"error","name":"ERC721InvalidOperator","inputs":[{"name":"operator","type":"address","internalType":"address"}]},{"type":"error","name":"ERC721InvalidOwner","inputs":[{"name":"owner","type":"address","internalType":"address"}]},{"type":"error","name":"ERC721InvalidReceiver","inputs":[{"name":"receiver","type":"address","internalType":"address"}]},{"type":"error","name":"ERC721InvalidSender","inputs":[{"name":"sender","type":"address","internalType":"address"}]},{"type":"error","name":"ERC721NonexistentToken","inputs":[{"name":"tokenId","type":"uint256","internalType":"uint256"}]},{"type":"error","name":"OwnableInvalidOwner","inputs":[{"name":"owner","type":"address","internalType":"address"}]},{"type":"error","name":"OwnableUnauthorizedAccount","inputs":[{"name":"account","type":"address","internalType":"address"}]}],"bytecode":{"object":"0x608060405234801561000f575f5ffd5b5060405161171538038061171583398101604081905261002e91610179565b8083835f61003c8382610282565b5060016100498282610282565b5050506001600160a01b03811661007957604051631e4fbdf760e01b81525f600482015260240160405180910390fd5b6100828161008b565b5050505061033c565b600780546001600160a01b038381166001600160a01b0319831681179093556040519116919082907f8be0079c531659141344cd1fd0a4f28419497f9722a3daafe3b4186f6b6457e0905f90a35050565b634e487b7160e01b5f52604160045260245ffd5b5f82601f8301126100ff575f5ffd5b81516001600160401b03811115610118576101186100dc565b604051601f8201601f19908116603f011681016001600160401b0381118282101715610146576101466100dc565b60405281815283820160200185101561015d575f5ffd5b8160208501602083015e5f918101602001919091529392505050565b5f5f5f6060848603121561018b575f5ffd5b83516001600160401b038111156101a0575f5ffd5b6101ac868287016100f0565b602086015190945090506001600160401b038111156101c9575f5ffd5b6101d5868287016100f0565b604086015190935090506001600160a01b03811681146101f3575f5ffd5b809150509250925092565b600181811c9082168061021257607f821691505b60208210810361023057634e487b7160e01b5f52602260045260245ffd5b50919050565b601f82111561027d57805f5260205f20601f840160051c8101602085101561025b5750805b601f840160051c820191505b8181101561027a575f8155600101610267565b50505b505050565b81516001600160401b0381111561029b5761029b6100dc565b6102af816102a984546101fe565b84610236565b6020601f8211600181146102e1575f83156102ca5750848201515b5f19600385901b1c1916600184901b17845561027a565b5f84815260208120601f198516915b8281101561031057878501518255602094850194600190920191016102f0565b508482101561032d57868401515f19600387901b60f8161c191681555b50505050600190811b01905550565b6113cc806103495f395ff3fe608060405234801561000f575f5ffd5b5060043610610111575f3560e01c8063715018a61161009e578063b88d4fde1161006e578063b88d4fde14610229578063c87b56dd1461023c578063e985e9c51461024f578063eacabe1414610262578063f2fde38b14610275575f5ffd5b8063715018a6146101f55780638da5cb5b146101fd57806395d89b411461020e578063a22cb46514610216575f5ffd5b806323b872dd116100e457806323b872dd1461019257806342842e0e146101a55780634a60f620146101b85780636352211e146101cf57806370a08231146101e2575f5ffd5b806301ffc9a71461011557806306fdde031461013d578063081812fc14610152578063095ea7b31461017d575b5f5ffd5b610128610123366004610ee7565b610288565b60405190151581526020015b60405180910390f35b610145610298565b6040516101349190610f30565b610165610160366004610f42565b610327565b6040516001600160a01b039091168152602001610134565b61019061018b366004610f74565b61034e565b005b6101906101a0366004610f9c565b61035d565b6101906101b3366004610f9c565b6103eb565b6101c160085481565b604051908152602001610134565b6101656101dd366004610f42565b61040a565b6101c16101f0366004610fd6565b610414565b610190610459565b6007546001600160a01b0316610165565b61014561046c565b610190610224366004610fef565b61047b565b6101906102373660046110b3565b610486565b61014561024a366004610f42565b61049e565b61012861025d36600461112a565b6104a9565b6101c161027036600461115b565b6104d6565b610190610283366004610fd6565b610510565b5f6102928261054d565b92915050565b60605f80546102a6906111b9565b80601f01602080910402602001604051908101604052809291908181526020018280546102d2906111b9565b801561031d5780601f106102f45761010080835404028352916020019161031d565b820191905f5260205f20905b81548152906001019060200180831161030057829003601f168201915b5050505050905090565b5f61033182610571565b505f828152600460205260409020546001600160a01b0316610292565b6103598282336105a9565b5050565b6001600160a01b03821661038b57604051633250574960e11b81525f60048201526024015b60405180910390fd5b5f6103978383336105b6565b9050836001600160a01b0316816001600160a01b0316146103e5576040516364283d7b60e01b81526001600160a01b0380861660048301526024820184905282166044820152606401610382565b50505050565b61040583838360405180602001604052805f815250610486565b505050565b5f61029282610571565b5f6001600160a01b03821661043e576040516322718ad960e21b81525f6004820152602401610382565b506001600160a01b03165f9081526003602052604090205490565b6104616106a8565b61046a5f6106d5565b565b6060600180546102a6906111b9565b610359338383610726565b61049184848461035d565b6103e533858585856107c4565b6060610292826108ec565b6001600160a01b039182165f90815260056020908152604080832093909416825291909152205460ff1690565b5f6104df6106a8565b600880549081905f6104f0836111f1565b91905055506104ff8482610a15565b6105098184610a76565b9392505050565b6105186106a8565b6001600160a01b03811661054157604051631e4fbdf760e01b81525f6004820152602401610382565b61054a816106d5565b50565b5f6001600160e01b03198216632483248360e11b1480610292575061029282610ac5565b5f818152600260205260408120546001600160a01b03168061029257604051637e27328960e01b815260048101849052602401610382565b6104058383836001610b14565b5f828152600260205260408120546001600160a01b03908116908316156105e2576105e2818486610c18565b6001600160a01b0381161561061c576105fd5f855f5f610b14565b6001600160a01b0381165f90815260036020526040902080545f190190555b6001600160a01b0385161561064a576001600160a01b0385165f908152600360205260409020805460010190555b5f8481526002602052604080822080546001600160a01b0319166001600160a01b0389811691821790925591518793918516917fddf252ad1be2c89b69c2b068fc378daa952ba7f163c4a11628f55a4df523b3ef91a4949350505050565b6007546001600160a01b0316331461046a5760405163118cdaa760e01b8152336004820152602401610382565b600780546001600160a01b038381166001600160a01b0319831681179093556040519116919082907f8be0079c531659141344cd1fd0a4f28419497f9722a3daafe3b4186f6b6457e0905f90a35050565b6001600160a01b03821661075857604051630b61174360e31b81526001600160a01b0383166004820152602401610382565b6001600160a01b038381165f81815260056020908152604080832094871680845294825291829020805460ff191686151590811790915591519182527f17307eab39ab6107e8899845ad3d59bd9653f200f220920489ca2b5937696c31910160405180910390a3505050565b6001600160a01b0383163b156108e557604051630a85bd0160e11b81526001600160a01b0384169063150b7a0290610806908890889087908790600401611215565b6020604051808303815f875af1925050508015610840575060408051601f3d908101601f1916820190925261083d91810190611251565b60015b6108a7573d80801561086d576040519150601f19603f3d011682016040523d82523d5f602084013e610872565b606091505b5080515f0361089f57604051633250574960e11b81526001600160a01b0385166004820152602401610382565b805181602001fd5b6001600160e01b03198116630a85bd0160e11b146108e357604051633250574960e11b81526001600160a01b0385166004820152602401610382565b505b5050505050565b60606108f782610571565b505f8281526006602052604081208054610910906111b9565b80601f016020809104026020016040519081016040528092919081815260200182805461093c906111b9565b80156109875780601f1061095e57610100808354040283529160200191610987565b820191905f5260205f20905b81548152906001019060200180831161096a57829003601f168201915b505050505090505f6109c160408051808201909152601581527468747470733a2f2f697066732e696f2f697066732f60581b602082015290565b905080515f036109d2575092915050565b815115610a045780826040516020016109ec929190611283565b60405160208183030381529060405292505050919050565b610a0d84610c7c565b949350505050565b6001600160a01b038216610a3e57604051633250574960e11b81525f6004820152602401610382565b5f610a4a83835f6105b6565b90506001600160a01b03811615610405576040516339e3563760e11b81525f6004820152602401610382565b5f828152600660205260409020610a8d82826112db565b506040518281527ff8e1a15aba9398e019f0b49df1a4fde98ee17ae345cb5f6b5e2c27f5033e8ce79060200160405180910390a15050565b5f6001600160e01b031982166380ac58cd60e01b1480610af557506001600160e01b03198216635b5e139f60e01b145b8061029257506301ffc9a760e01b6001600160e01b0319831614610292565b8080610b2857506001600160a01b03821615155b15610be9575f610b3784610571565b90506001600160a01b03831615801590610b635750826001600160a01b0316816001600160a01b031614155b8015610b765750610b7481846104a9565b155b15610b9f5760405163a9fbf51f60e01b81526001600160a01b0384166004820152602401610382565b8115610be75783856001600160a01b0316826001600160a01b03167f8c5be1e5ebec7d5bd14f71427d1e84f3dd0314c0f7b2291e5b200ac8c7c3b92560405160405180910390a45b505b50505f90815260046020526040902080546001600160a01b0319166001600160a01b0392909216919091179055565b610c23838383610d0a565b610405576001600160a01b038316610c5157604051637e27328960e01b815260048101829052602401610382565b60405163177e802f60e01b81526001600160a01b038316600482015260248101829052604401610382565b6060610c8782610571565b505f610cbb60408051808201909152601581527468747470733a2f2f697066732e696f2f697066732f60581b602082015290565b90505f815111610cd95760405180602001604052805f815250610509565b80610ce384610d6b565b604051602001610cf4929190611283565b6040516020818303038152906040529392505050565b5f6001600160a01b03831615801590610a0d5750826001600160a01b0316846001600160a01b03161480610d435750610d4384846104a9565b80610a0d5750505f908152600460205260409020546001600160a01b03908116911614919050565b60605f610d7783610dfb565b60010190505f8167ffffffffffffffff811115610d9657610d96611028565b6040519080825280601f01601f191660200182016040528015610dc0576020820181803683370190505b5090508181016020015b5f19016f181899199a1a9b1b9c1cb0b131b232b360811b600a86061a8153600a8504945084610dca57509392505050565b5f8072184f03e93ff9f4daa797ed6e38ed64bf6a1f0160401b8310610e395772184f03e93ff9f4daa797ed6e38ed64bf6a1f0160401b830492506040015b6d04ee2d6d415b85acef81000000008310610e65576d04ee2d6d415b85acef8100000000830492506020015b662386f26fc100008310610e8357662386f26fc10000830492506010015b6305f5e1008310610e9b576305f5e100830492506008015b6127108310610eaf57612710830492506004015b60648310610ec1576064830492506002015b600a83106102925760010192915050565b6001600160e01b03198116811461054a575f5ffd5b5f60208284031215610ef7575f5ffd5b813561050981610ed2565b5f81518084528060208401602086015e5f602082860101526020601f19601f83011685010191505092915050565b602081525f6105096020830184610f02565b5f60208284031215610f52575f5ffd5b5035919050565b80356001600160a01b0381168114610f6f575f5ffd5b919050565b5f5f60408385031215610f85575f5ffd5b610f8e83610f59565b946020939093013593505050565b5f5f5f60608486031215610fae575f5ffd5b610fb784610f59565b9250610fc560208501610f59565b929592945050506040919091013590565b5f60208284031215610fe6575f5ffd5b61050982610f59565b5f5f60408385031215611000575f5ffd5b61100983610f59565b91506020830135801515811461101d575f5ffd5b809150509250929050565b634e487b7160e01b5f52604160045260245ffd5b5f5f67ffffffffffffffff84111561105657611056611028565b50604051601f19601f85018116603f0116810181811067ffffffffffffffff8211171561108557611085611028565b60405283815290508082840185101561109c575f5ffd5b838360208301375f60208583010152509392505050565b5f5f5f5f608085870312156110c6575f5ffd5b6110cf85610f59565b93506110dd60208601610f59565b925060408501359150606085013567ffffffffffffffff8111156110ff575f5ffd5b8501601f8101871361110f575f5ffd5b61111e8782356020840161103c565b91505092959194509250565b5f5f6040838503121561113b575f5ffd5b61114483610f59565b915061115260208401610f59565b90509250929050565b5f5f6040838503121561116c575f5ffd5b61117583610f59565b9150602083013567ffffffffffffffff811115611190575f5ffd5b8301601f810185136111a0575f5ffd5b6111af8582356020840161103c565b9150509250929050565b600181811c908216806111cd57607f821691505b6020821081036111eb57634e487b7160e01b5f52602260045260245ffd5b50919050565b5f6001820161120e57634e487b7160e01b5f52601160045260245ffd5b5060010190565b6001600160a01b03858116825284166020820152604081018390526080606082018190525f9061124790830184610f02565b9695505050505050565b5f60208284031215611261575f5ffd5b815161050981610ed2565b5f81518060208401855e5f93019283525090919050565b5f610a0d611291838661126c565b8461126c565b601f82111561040557805f5260205f20601f840160051c810160208510156112bc5750805b601f840160051c820191505b818110156108e5575f81556001016112c8565b815167ffffffffffffffff8111156112f5576112f5611028565b6113098161130384546111b9565b84611297565b6020601f82116001811461133b575f83156113245750848201515b5f19600385901b1c1916600184901b1784556108e5565b5f84815260208120601f198516915b8281101561136a578785015182556020948501946001909201910161134a565b508482101561138757868401515f19600387901b60f8161c191681555b50505050600190811b0190555056fea26469706673582212208e830aaca10a31f95f1247fb8ce4a6d7a6cab9e5f904d792bed335651906f9ac64736f6c634300081c0033","linkReferences":{}},"methodIdentifiers":{"_nextTokenId()":"4a60f620","approve(address,uint256)":"095ea7b3","balanceOf(address)":"70a08231","getApproved(uint256)":"081812fc","isApprovedForAll(address,address)":"e985e9c5","mintNFT(address,string)":"eacabe14","name()":"06fdde03","owner()":"8da5cb5b","ownerOf(uint256)":"6352211e","renounceOwnership()":"715018a6","safeTransferFrom(address,address,uint256)":"42842e0e","safeTransferFrom(address,address,uint256,bytes)":"b88d4fde","setApprovalForAll(address,bool)":"a22cb465","supportsInterface(bytes4)":"01ffc9a7","symbol()":"95d89b41","tokenURI(uint256)":"c87b56dd","transferFrom(address,address,uint256)":"23b872dd","transferOwnership(address)":"f2fde38b"},"id":0}