{"abi":[{"type":"constructor","inputs":[{"name":"name","type":"string","internalType":"string"},{"name":"symbol","type":"string","internalType":"string"},{"name":"initialOwner","type":"address","internalType":"address"}],"stateMutability":"nonpayable"},{"type":"function","name":"_nextTokenId","inputs":[],"outputs":[{"name":"","type":"uint256","internalType":"uint256"}],"stateMutability":"view"},{"type":"function","name":"approve","inputs":[{"name":"to","type":"address","internalType":"address"},{"name":"tokenId","type":"uint256","internalType":"uint256"}],"outputs":[],"stateMutability":"nonpayable"},{"type":"function","name":"balanceOf","inputs":[{"name":"owner","type":"address","internalType":"address"}],"outputs":[{"name":"","type":"uint256","internalType":"uint256"}],"stateMutability":"view"},{"type":"function","name":"getApproved","inputs":[{"name":"tokenId","type":"uint256","internalType":"uint256"}],"outputs":[{"name":"","type":"address","internalType":"address"}],"stateMutability":"view"},{"type":"function","name":"isApprovedForAll","inputs":[{"name":"owner","type":"address","internalType":"address"},{"name":"operator","type":"address","internalType":"address"}],"outputs":[{"name":"","type":"bool","internalType":"bool"}],"stateMutability":"view"},{"type":"function","name":"mintNFT","inputs":[{"name":"recipient","type":"address","internalType":"address"},{"name":"tURI","type":"string","internalType":"string"}],"outputs":[{"name":"","type":"uint256","internalType":"uint256"}],"stateMutability":"nonpayable"},{"type":"function","name":"name","inputs":[],"outputs":[{"name":"","type":"string","internalType":"string"}],"stateMutability":"view"},{"type":"function","name":"owner","inputs":[],"outputs":[{"name":"","type":"address","internalType":"address"}],"stateMutability":"view"},{"type":"function","name":"ownerOf","inputs":[{"name":"tokenId","type":"uint256","internalType":"uint256"}],"outputs":[{"name":"","type":"address","internalType":"address"}],"stateMutability":"view"},{"type":"function","name":"renounceOwnership","inputs":[],"outputs":[],"stateMutability":"nonpayable"},{"type":"function","name":"safeTransferFrom","inputs":[{"name":"from","type":"address","internalType":"address"},{"name":"to","type":"address","internalType":"address"},{"name":"tokenId","type":"uint256","internalType":"uint256"}],"outputs":[],"stateMutability":"nonpayable"},{"type":"function","name":"safeTransferFrom","inputs":[{"name":"from","type":"address","internalType":"address"},{"name":"to","type":"address","internalType":"address"},{"name":"tokenId","type":"uint256","internalType":"uint256"},{"name":"data","type":"bytes","internalType":"bytes"}],"outputs":[],"stateMutability":"nonpayable"},{"type":"function","name":"setApprovalForAll","inputs":[{"name":"operator","type":"address","internalType":"address"},{"name":"approved","type":"bool","internalType":"bool"}],"outputs":[],"stateMutability":"nonpayable"},{"type":"function","name":"supportsInterface","inputs":[{"name":"interfaceId","type":"bytes4","internalType":"bytes4"}],"outputs":[{"name":"","type":"bool","internalType":"bool"}],"stateMutability":"view"},{"type":"function","name":"symbol","inputs":[],"outputs":[{"name":"","type":"string","internalType":"string"}],"stateMutability":"view"},{"type":"function","name":"tokenByIndex","inputs":[{"name":"index","type":"uint256","internalType":"uint256"}],"outputs":[{"name":"","type":"uint256","internalType":"uint256"}],"stateMutability":"view"},{"type":"function","name":"tokenOfOwnerByIndex","inputs":[{"name":"owner","type":"address","internalType":"address"},{"name":"index","type":"uint256","internalType":"uint256"}],"outputs":[{"name":"","type":"uint256","internalType":"uint256"}],"stateMutability":"view"},{"type":"function","name":"tokenURI","inputs":[{"name":"tokenId","type":"uint256","internalType":"uint256"}],"outputs":[{"name":"","type":"string","internalType":"string"}],"stateMutability":"view"},{"type":"function","name":"totalSupply","inputs":[],"outputs":[{"name":"","type":"uint256","internalType":"uint256"}],"stateMutability":"view"},{"type":"function","name":"transferFrom","inputs":[{"name":"from","type":"address","internalType":"address"},{"name":"to","type":"address","internalType":"address"},{"name":"tokenId","type":"uint256","internalType":"uint256"}],"outputs":[],"stateMutability":"nonpayable"},{"type":"function","name":"transferOwnership","inputs":[{"name":"newOwner","type":"address","internalType":"address"}],"outputs":[],"stateMutability":"nonpayable"},{"type":"event","name":"Approval","inputs":[{"name":"owner","type":"address","indexed":true,"internalType":"address"},{"name":"approved","type":"address","indexed":true,"internalType":"address"},{"name":"tokenId","type":"uint256","indexed":true,"internalType":"uint256"}],"anonymous":false},{"type":"event","name":"ApprovalForAll","inputs":[{"name":"owner","type":"address","indexed":true,"internalType":"address"},{"name":"operator","type":"address","indexed":true,"internalType":"address"},{"name":"approved","type":"bool","indexed":false,"internalType":"bool"}],"anonymous":false},{"type":"event","name":"BatchMetadataUpdate","inputs":[{"name":"_fromTokenId","type":"uint256","indexed":false,"internalType":"uint256"},{"name":"_toTokenId","type":"uint256","indexed":false,"internalType":"uint256"}],"anonymous":false},{"type":"event","name":"MetadataUpdate","inputs":[{"name":"_tokenId","type":"uint256","indexed":false,"internalType":"uint256"}],"anonymous":false},{"type":"event","name":"OwnershipTransferred","inputs":[{"name":"previousOwner","type":"address","indexed":true,"internalType":"address"},{"name":"newOwner","type":"address","indexed":true,"internalType":"address"}],"anonymous":false},{"type":"event","name":"Transfer","inputs":[{"name":"from","type":"address","indexed":true,"internalType":"address"},{"name":"to","type":"address","indexed":true,"internalType":"address"},{"name":"tokenId","type":"uint256","indexed":true,"internalType":"uint256"}],"anonymous":false},{"type":"error","name":"ERC721EnumerableForbiddenBatchMint","inputs":[]},{"type":"error","name":"ERC721IncorrectOwner","inputs":[{"name":"sender","type":"address","internalType":"address"},{"name":"tokenId","type":"uint256","internalType":"uint256"},{"name":"owner","type":"address","internalType":"address"}]},{"type":"error","name":"ERC721InsufficientApproval","inputs":[{"name":"operator","type":"address","internalType":"address"},{"name":"tokenId","type":"uint256","internalType":"uint256"}]},{"type":"error","name":"ERC721InvalidApprover","inputs":[{"name":"approver","type":"address","internalType":"address"}]},{"type":"error","name":"ERC721InvalidOperator","inputs":[{"name":"operator","type":"address","internalType":"address"}]},{"type":"error","name":"ERC721InvalidOwner","inputs":[{"name":"owner","type":"address","internalType":"address"}]},{"type":"error","name":"ERC721InvalidReceiver","inputs":[{"name":"receiver","type":"address","internalType":"address"}]},{"type":"error","name":"ERC721InvalidSender","inputs":[{"name":"sender","type":"address","internalType":"address"}]},{"type":"error","name":"ERC721NonexistentToken","inputs":[{"name":"tokenId","type":"uint256","internalType":"uint256"}]},{"type":"error","name":"ERC721OutOfBoundsIndex","inputs":[{"name":"owner","type":"address","internalType":"address"},{"name":"index","type":"uint256","internalType":"uint256"}]},{"type":"error","name":"OwnableInvalidOwner","inputs":[{"name":"owner","type":"address","internalType":"address"}]},{"type":"error","name":"OwnableUnauthorizedAccount","inputs":[{"name":"account","type":"address","internalType":"address"}]}],"bytecode":{"object":"0x608060405234801561000f575f5ffd5b50604051611ac8380380611ac883398101604081905261002e91610179565b8083835f61003c8382610282565b5060016100498282610282565b5050506001600160a01b03811661007957604051631e4fbdf760e01b81525f600482015260240160405180910390fd5b6100828161008b565b5050505061033c565b600b80546001600160a01b038381166001600160a01b0319831681179093556040519116919082907f8be0079c531659141344cd1fd0a4f28419497f9722a3daafe3b4186f6b6457e0905f90a35050565b634e487b7160e01b5f52604160045260245ffd5b5f82601f8301126100ff575f5ffd5b81516001600160401b03811115610118576101186100dc565b604051601f8201601f19908116603f011681016001600160401b0381118282101715610146576101466100dc565b60405281815283820160200185101561015d575f5ffd5b8160208501602083015e5f918101602001919091529392505050565b5f5f5f6060848603121561018b575f5ffd5b83516001600160401b038111156101a0575f5ffd5b6101ac868287016100f0565b602086015190945090506001600160401b038111156101c9575f5ffd5b6101d5868287016100f0565b604086015190935090506001600160a01b03811681146101f3575f5ffd5b809150509250925092565b600181811c9082168061021257607f821691505b60208210810361023057634e487b7160e01b5f52602260045260245ffd5b50919050565b601f82111561027d57805f5260205f20601f840160051c8101602085101561025b5750805b601f840160051c820191505b8181101561027a575f8155600101610267565b50505b505050565b81516001600160401b0381111561029b5761029b6100dc565b6102af816102a984546101fe565b84610236565b6020601f8211600181146102e1575f83156102ca5750848201515b5f19600385901b1c1916600184901b17845561027a565b5f84815260208120601f198516915b8281101561031057878501518255602094850194600190920191016102f0565b508482101561032d57868401515f19600387901b60f8161c191681555b50505050600190811b01905550565b61177f806103495f395ff3fe608060405234801561000f575f5ffd5b5060043610610132575f3560e01c80636352211e116100b4578063a22cb46511610079578063a22cb46514610261578063b88d4fde14610274578063c87b56dd14610287578063e985e9c51461029a578063eacabe14146102ad578063f2fde38b146102c0575f5ffd5b80636352211e1461021a57806370a082311461022d578063715018a6146102405780638da5cb5b1461024857806395d89b4114610259575f5ffd5b806323b872dd116100fa57806323b872dd146101c55780632f745c59146101d857806342842e0e146101eb5780634a60f620146101fe5780634f6ccce714610207575f5ffd5b806301ffc9a71461013657806306fdde031461015e578063081812fc14610173578063095ea7b31461019e57806318160ddd146101b3575b5f5ffd5b610149610144366004611257565b6102d3565b60405190151581526020015b60405180910390f35b6101666102e3565b60405161015591906112a0565b6101866101813660046112b2565b610372565b6040516001600160a01b039091168152602001610155565b6101b16101ac3660046112e4565b610399565b005b6008545b604051908152602001610155565b6101b16101d336600461130c565b6103a8565b6101b76101e63660046112e4565b610436565b6101b16101f936600461130c565b610499565b6101b7600c5481565b6101b76102153660046112b2565b6104b8565b6101866102283660046112b2565b61050d565b6101b761023b366004611346565b610517565b6101b161055c565b600b546001600160a01b0316610186565b61016661056f565b6101b161026f36600461135f565b61057e565b6101b1610282366004611423565b610589565b6101666102953660046112b2565b6105a1565b6101496102a836600461149a565b6105ac565b6101b76102bb3660046114cb565b6105d9565b6101b16102ce366004611346565b610613565b5f6102dd82610650565b92915050565b60605f80546102f190611529565b80601f016020809104026020016040519081016040528092919081815260200182805461031d90611529565b80156103685780601f1061033f57610100808354040283529160200191610368565b820191905f5260205f20905b81548152906001019060200180831161034b57829003601f168201915b5050505050905090565b5f61037c82610674565b505f828152600460205260409020546001600160a01b03166102dd565b6103a48282336106ac565b5050565b6001600160a01b0382166103d657604051633250574960e11b81525f60048201526024015b60405180910390fd5b5f6103e28383336106b9565b9050836001600160a01b0316816001600160a01b031614610430576040516364283d7b60e01b81526001600160a01b03808616600483015260248201849052821660448201526064016103cd565b50505050565b5f61044083610517565b82106104715760405163295f44f760e21b81526001600160a01b0384166004820152602481018390526044016103cd565b506001600160a01b03919091165f908152600660209081526040808320938352929052205490565b6104b383838360405180602001604052805f815250610589565b505050565b5f6104c260085490565b82106104ea5760405163295f44f760e21b81525f6004820152602481018390526044016103cd565b600882815481106104fd576104fd611561565b905f5260205f2001549050919050565b5f6102dd82610674565b5f6001600160a01b038216610541576040516322718ad960e21b81525f60048201526024016103cd565b506001600160a01b03165f9081526003602052604090205490565b6105646106cd565b61056d5f6106fa565b565b6060600180546102f190611529565b6103a433838361074b565b6105948484846103a8565b61043033858585856107e9565b60606102dd82610911565b6001600160a01b039182165f90815260056020908152604080832093909416825291909152205460ff1690565b5f6105e26106cd565b600c80549081905f6105f383611589565b91905055506106028482610a32565b61060c8184610a93565b9392505050565b61061b6106cd565b6001600160a01b03811661064457604051631e4fbdf760e01b81525f60048201526024016103cd565b61064d816106fa565b50565b5f6001600160e01b03198216632483248360e11b14806102dd57506102dd82610ae2565b5f818152600260205260408120546001600160a01b0316806102dd57604051637e27328960e01b8152600481018490526024016103cd565b6104b38383836001610b06565b5f6106c5848484610c0a565b949350505050565b600b546001600160a01b0316331461056d5760405163118cdaa760e01b81523360048201526024016103cd565b600b80546001600160a01b038381166001600160a01b0319831681179093556040519116919082907f8be0079c531659141344cd1fd0a4f28419497f9722a3daafe3b4186f6b6457e0905f90a35050565b6001600160a01b03821661077d57604051630b61174360e31b81526001600160a01b03831660048201526024016103cd565b6001600160a01b038381165f81815260056020908152604080832094871680845294825291829020805460ff191686151590811790915591519182527f17307eab39ab6107e8899845ad3d59bd9653f200f220920489ca2b5937696c31910160405180910390a3505050565b6001600160a01b0383163b1561090a57604051630a85bd0160e11b81526001600160a01b0384169063150b7a029061082b9088908890879087906004016115a1565b6020604051808303815f875af1925050508015610865575060408051601f3d908101601f19168201909252610862918101906115dd565b60015b6108cc573d808015610892576040519150601f19603f3d011682016040523d82523d5f602084013e610897565b606091505b5080515f036108c457604051633250574960e11b81526001600160a01b03851660048201526024016103cd565b805181602001fd5b6001600160e01b03198116630a85bd0160e11b1461090857604051633250574960e11b81526001600160a01b03851660048201526024016103cd565b505b5050505050565b606061091c82610674565b505f828152600a60205260408120805461093590611529565b80601f016020809104026020016040519081016040528092919081815260200182805461096190611529565b80156109ac5780601f10610983576101008083540402835291602001916109ac565b820191905f5260205f20905b81548152906001019060200180831161098f57829003601f168201915b505050505090505f6109e660408051808201909152601581527468747470733a2f2f697066732e696f2f697066732f60581b602082015290565b905080515f036109f7575092915050565b815115610a29578082604051602001610a1192919061160f565b60405160208183030381529060405292505050919050565b6106c584610cd5565b6001600160a01b038216610a5b57604051633250574960e11b81525f60048201526024016103cd565b5f610a6783835f6106b9565b90506001600160a01b038116156104b3576040516339e3563760e11b81525f60048201526024016103cd565b5f828152600a60205260409020610aaa8282611667565b506040518281527ff8e1a15aba9398e019f0b49df1a4fde98ee17ae345cb5f6b5e2c27f5033e8ce79060200160405180910390a15050565b5f6001600160e01b0319821663780e9d6360e01b14806102dd57506102dd82610d63565b8080610b1a57506001600160a01b03821615155b15610bdb575f610b2984610674565b90506001600160a01b03831615801590610b555750826001600160a01b0316816001600160a01b031614155b8015610b685750610b6681846105ac565b155b15610b915760405163a9fbf51f60e01b81526001600160a01b03841660048201526024016103cd565b8115610bd95783856001600160a01b0316826001600160a01b03167f8c5be1e5ebec7d5bd14f71427d1e84f3dd0314c0f7b2291e5b200ac8c7c3b92560405160405180910390a45b505b50505f90815260046020526040902080546001600160a01b0319166001600160a01b0392909216919091179055565b5f5f610c17858585610db2565b90506001600160a01b038116610c7357610c6e84600880545f838152600960205260408120829055600182018355919091527ff3f7a9fe364faab93b216da50a3214154f22a0a2b415b23a84c8169e8b636ee30155565b610c96565b846001600160a01b0316816001600160a01b031614610c9657610c968185610ea4565b6001600160a01b038516610cb257610cad84610f21565b6106c5565b846001600160a01b0316816001600160a01b0316146106c5576106c58585610fc8565b6060610ce082610674565b505f610d1460408051808201909152601581527468747470733a2f2f697066732e696f2f697066732f60581b602082015290565b90505f815111610d325760405180602001604052805f81525061060c565b80610d3c84611016565b604051602001610d4d92919061160f565b6040516020818303038152906040529392505050565b5f6001600160e01b031982166380ac58cd60e01b1480610d9357506001600160e01b03198216635b5e139f60e01b145b806102dd57506301ffc9a760e01b6001600160e01b03198316146102dd565b5f828152600260205260408120546001600160a01b0390811690831615610dde57610dde8184866110a6565b6001600160a01b03811615610e1857610df95f855f5f610b06565b6001600160a01b0381165f90815260036020526040902080545f190190555b6001600160a01b03851615610e46576001600160a01b0385165f908152600360205260409020805460010190555b5f8481526002602052604080822080546001600160a01b0319166001600160a01b0389811691821790925591518793918516917fddf252ad1be2c89b69c2b068fc378daa952ba7f163c4a11628f55a4df523b3ef91a4949350505050565b5f610eae83610517565b5f838152600760209081526040808320546001600160a01b0388168452600690925290912091925090818314610f03575f83815260208281526040808320548584528184208190558352600790915290208290555b5f938452600760209081526040808620869055938552525081205550565b6008545f90610f3290600190611722565b5f8381526009602052604081205460088054939450909284908110610f5957610f59611561565b905f5260205f20015490508060088381548110610f7857610f78611561565b5f918252602080832090910192909255828152600990915260408082208490558582528120556008805480610faf57610faf611735565b600190038181905f5260205f20015f9055905550505050565b5f6001610fd484610517565b610fde9190611722565b6001600160a01b039093165f908152600660209081526040808320868452825280832085905593825260079052919091209190915550565b60605f6110228361110a565b60010190505f8167ffffffffffffffff81111561104157611041611398565b6040519080825280601f01601f19166020018201604052801561106b576020820181803683370190505b5090508181016020015b5f19016f181899199a1a9b1b9c1cb0b131b232b360811b600a86061a8153600a850494508461107557509392505050565b6110b18383836111e1565b6104b3576001600160a01b0383166110df57604051637e27328960e01b8152600481018290526024016103cd565b60405163177e802f60e01b81526001600160a01b0383166004820152602481018290526044016103cd565b5f8072184f03e93ff9f4daa797ed6e38ed64bf6a1f0160401b83106111485772184f03e93ff9f4daa797ed6e38ed64bf6a1f0160401b830492506040015b6d04ee2d6d415b85acef81000000008310611174576d04ee2d6d415b85acef8100000000830492506020015b662386f26fc10000831061119257662386f26fc10000830492506010015b6305f5e10083106111aa576305f5e100830492506008015b61271083106111be57612710830492506004015b606483106111d0576064830492506002015b600a83106102dd5760010192915050565b5f6001600160a01b038316158015906106c55750826001600160a01b0316846001600160a01b0316148061121a575061121a84846105ac565b806106c55750505f908152600460205260409020546001600160a01b03908116911614919050565b6001600160e01b03198116811461064d575f5ffd5b5f60208284031215611267575f5ffd5b813561060c81611242565b5f81518084528060208401602086015e5f602082860101526020601f19601f83011685010191505092915050565b602081525f61060c6020830184611272565b5f602082840312156112c2575f5ffd5b5035919050565b80356001600160a01b03811681146112df575f5ffd5b919050565b5f5f604083850312156112f5575f5ffd5b6112fe836112c9565b946020939093013593505050565b5f5f5f6060848603121561131e575f5ffd5b611327846112c9565b9250611335602085016112c9565b929592945050506040919091013590565b5f60208284031215611356575f5ffd5b61060c826112c9565b5f5f60408385031215611370575f5ffd5b611379836112c9565b91506020830135801515811461138d575f5ffd5b809150509250929050565b634e487b7160e01b5f52604160045260245ffd5b5f5f67ffffffffffffffff8411156113c6576113c6611398565b50604051601f19601f85018116603f0116810181811067ffffffffffffffff821117156113f5576113f5611398565b60405283815290508082840185101561140c575f5ffd5b838360208301375f60208583010152509392505050565b5f5f5f5f60808587031215611436575f5ffd5b61143f856112c9565b935061144d602086016112c9565b925060408501359150606085013567ffffffffffffffff81111561146f575f5ffd5b8501601f8101871361147f575f5ffd5b61148e878235602084016113ac565b91505092959194509250565b5f5f604083850312156114ab575f5ffd5b6114b4836112c9565b91506114c2602084016112c9565b90509250929050565b5f5f604083850312156114dc575f5ffd5b6114e5836112c9565b9150602083013567ffffffffffffffff811115611500575f5ffd5b8301601f81018513611510575f5ffd5b61151f858235602084016113ac565b9150509250929050565b600181811c9082168061153d57607f821691505b60208210810361155b57634e487b7160e01b5f52602260045260245ffd5b50919050565b634e487b7160e01b5f52603260045260245ffd5b634e487b7160e01b5f52601160045260245ffd5b5f6001820161159a5761159a611575565b5060010190565b6001600160a01b03858116825284166020820152604081018390526080606082018190525f906115d390830184611272565b9695505050505050565b5f602082840312156115ed575f5ffd5b815161060c81611242565b5f81518060208401855e5f93019283525090919050565b5f6106c561161d83866115f8565b846115f8565b601f8211156104b357805f5260205f20601f840160051c810160208510156116485750805b601f840160051c820191505b8181101561090a575f8155600101611654565b815167ffffffffffffffff81111561168157611681611398565b6116958161168f8454611529565b84611623565b6020601f8211600181146116c7575f83156116b05750848201515b5f19600385901b1c1916600184901b17845561090a565b5f84815260208120601f198516915b828110156116f657878501518255602094850194600190920191016116d6565b508482101561171357868401515f19600387901b60f8161c191681555b50505050600190811b01905550565b818103818111156102dd576102dd611575565b634e487b7160e01b5f52603160045260245ffdfea2646970667358221220ff03e0bdc983f909e3f17c512a871fab69fceac2c15a20e4572e307f9d9975d964736f6c634300081c0033","linkReferences":{}},"methodIdentifiers":{"_nextTokenId()":"4a60f620","approve(address,uint256)":"095ea7b3","balanceOf(address)":"70a08231","getApproved(uint256)":"081812fc","isApprovedForAll(address,address)":"e985e9c5","mintNFT(address,string)":"eacabe14","name()":"06fdde03","owner()":"8da5cb5b","ownerOf(uint256)":"6352211e","renounceOwnership()":"715018a6","safeTransferFrom(address,address,uint256)":"42842e0e","safeTransferFrom(address,address,uint256,bytes)":"b88d4fde","setApprovalForAll(address,bool)":"a22cb465","supportsInterface(bytes4)":"01ffc9a7","symbol()":"95d89b41","tokenByIndex(uint256)":"4f6ccce7","tokenOfOwnerByIndex(address,uint256)":"2f745c59","tokenURI(uint256)":"c87b56dd","totalSupply()":"18160ddd","transferFrom(address,address,uint256)":"23b872dd","transferOwnership(address)":"f2fde38b"},"id":1}